:03000000020D32BC
:0C0D3200787FE4F6D8FD758141020D7950
:0310BD00C2A722A5
:09108700C2A6D2A7D2A6C2A7227C
:09109000C2A6C2A7D2A6D2A72273
:100F7D00E4FEEEC39408748094805018C2A6C37426
:100F8D00079EFDF8EF088002C313D8FC1392A7D279
:040F9D00A60E80DE3E
:010FA100222D
:100F1B00E4FEEEC39408748094805027C2A6D2A638
:100F2B0030A70FA8067480088002C313D8FC4207B1
:100F3B00800EA8067480088002C313D8FCF45207F5
:030F4B000E80CF46
:010F4E002280
:100FFE00AB051210BD120F7D12100EAF03120F7D36
:0A100E00C2A6D2A7D2A620A7FD2299
:0710A100C2A6D2A7D2A622CD
:10101800AE07AC03120FFEAF04120F7D12100E12B2
:0910280010907F0A7E00020FC542
:020FE300AC0759
:100FE500120FFE121087EC4401FF120F7D12100E36
:090FF500120F1B1210A102109052
:100ED7007F107E00120FC57F301210AF7F067E0095
:100EE700120FC57F301210AF7F017E00120FC57F32
:100EF700301210AF7F017E00120FC57F381210AF7E
:100F07007F101210AF7F011210AF7F061210AF7F54
:040F17000F0210AF06
:0510AF00C2A002106B5D
:0510B400D2A002106B48
:0F106B00C2A18F80D2A2C2A27F027E00020FC557
:100FA2008B1E8A1F8920AB1EAA1FA920120B3FFF8E
:100FB20060101210B474012520F520E4351FF51FCE
:030FC20080E422A6
:040DBE008E1E8F1FD7
:100DC200E4F52AE51F451E70057F301210B4C3E515
:100DD2001E6480948050107F2D1210B4C3E4951FBE
:100DE200F51FE4951EF51EAE1EAF1F7C007D0A1294
:100DF2000B6AED2430FFAE2A052A74202EF8A607CE
:100E0200AE1EAF1F7C007D0A120B6A8E1E8F1FE57D
:100E12001F451E70D2AF2AEF3395E0FED3EF940048
:100E2200EE64809480400D741F2FF8E6FF1210B418
:040E3200152A80E11C
:010E36002299
:100F4F00205254432054494D4520454449540020D4
:100F5F0050524F4A454354002048483A4D4D3A535A
:0E0F6F0053002044442F4D4D2F594541520050
:100BF500E4FD7FD0120FE3EF64017007FBFD7FD0AA
:100C0500121018120ED7D2A8D2AFD2887F0C1210AC
:100C1500AF7FC31210AF7BFF7A0F794F120FA27F00
:100C25009A1210AF7BFF7A0F795E120FA27FE87ED2
:100C350003120FC57F011210AF7F851210AF7BFF26
:100C45007A0F7967120FA27F991210AF7BFF7A0F87
:100C55007971120FA2120E8B8B088A09890A7FC639
:100C65001210AFAB08AA09A90A120FA2120E378BF0
:100C75000B8A0C890D7FDA1210AFAB0BAA0CA90DEC
:100C8500120FA2E53F640170CCF53F12080080C544
:100FC500D3EF9400EE940040147D7A7C00ED1D7003
:0D0FD500011CED4C70F7EF1F70E61E80E36D
:010FE20022EC
:10105B003738392F3435362A3132332D21303D2B69
:10104A00C297C296C295C294D293D292D291D290AA
:01105A002273
:100A7D0012104AA29182908292829340F6C294D231
:100A8D0097D296D295A2918290829282934005E45C
:100A9D00F5408043C295D297D296D294A29182907E
:100AAD00829282934005754001802CC296D297D2D6
:100ABD0095D294A2918290829282934005754002C4
:100ACD008015C297D296D295D294A291829082929D
:100ADD0082934003754003209005E4F54180132077
:100AED009105754101800B209205754102800375BA
:100AFD004103A29182908292829350F67F647E0090
:100B0D00120FC5AF40EF3395E0FEEF7802C333CE41
:100B1D0033CED8F9245BF58274103EF583AF41EFE7
:100B2D003395E0FEE5822FF582E5833EF583E49370
:010B3D00FFB8
:010B3E002294
:1009B100202020002057524F4E47204441544100EF
:1009C10020202020202020202020202020004348FB
:1009D100414E47452053455454494E4753004D45D8
:1009E1004E5500313A4852530020323A4D494E009B
:1009F10020333A53454300343A4454200020353AD9
:100A01004D4F4E0020363A595220004348414E473F
:100A11004520484F55525F54494D45004348414E8A
:100A21004745204D494E555445535F54494D450066
:100A31004348414E474520534543535F54494D4533
:100A4100004348414E4745204441544500434841F5
:100A51004E4745204D4F4E5448004348414E47456F
:100A61002059454152002048483A4D4D3A535300D0
:0C0A71002044442F4D4D2F5945415200A8
:10103100092B30303A30303A3030000B3430302F19
:0810410030302F303030300058
:030003000210B92F
:0410B900753F01324C
:0D107A00EF540FC454F0FFED540F4FFF2250
:0710A800EF540F2430FF227A
:08109900EFC4540F2430FF22C4
:040C95008E148F1515
:100C99007FC81210AF120A7DEF3395E0F5168F1752
:100CA9001210B4120A7DEF3395E0F5188F1912105E
:100CB900B4AF17AD1912107A751A008F1BE51724F6
:100CC900D0FFE51634FFFE7C007D0A120B58E519AA
:100CD90024D0CDE51834FFCD2FF51DED3EF51CD3FD
:100CE900E51D9515E5146480F8E51C648098402697
:100CF9007FC81210AF7BFF7A0979B1120FA27FD496
:100D09001210AFAF1DAE1C120DBE7BFF7A0979B56B
:100D1900120FA2020C997FD41210AF7BFF7A0979C6
:080D2900C1120FA2AE1AAF1BAC
:010D3100229F
:100800007F011210AF7FC41210AF7BFF7A0979CF3E
:10081000120FA27F207E03120FC57F011210AF7F3F
:10082000881210AF7BFF7A0979DF120FA27FC31203
:1008300010AF7BFF7A0979E4120FA27BFF7A097966
:10084000EA120FA27BFF7A0979F1120FA27F9712A9
:1008500010AF7BFF7A0979F8120FA27BFF7A097932
:10086000FE120FA27BFF7A0A7905120FA2120A7DEF
:10087000EF24CE603814605414606F1470030209C2
:1008800008147003020926240560030209517F0140
:100890001210AF7F821210AF7BFF7A0A790C120F11
:1008A000A27F187E00120C958F0E0209517F011253
:1008B00010AF7F811210AF7BFF7A0A791D120FA251
:1008C0007F3C7E00120C958F0F0209517F011210A0
:1008D000AF7F821210AF7BFF7A0A7931120FA27FAD
:1008E0003C7E00120C958F1080677F011210AF7F45
:1008F000821210AF7BFF7A0A7942120FA27F1F7E0D
:1009000000120C958F1180497F011210AF7F811268
:1009100010AF7BFF7A0A794E120FA27F0C7E001275
:100920000C958F12802B7F011210AF7F821210AFB7
:100930007BFF7A0A795B120FA27FC61210AF7F325B
:100940001210B47F301210B47F637E00120C958FAA
:10095000137F011210AFAB0E7D027FD0121018ABC7
:100960000F7D017FD0121018AB10E4FD7FD0121064
:1009700018AB117D047FD0121018AB127D057FD00B
:10098000121018AB137D067FD01210187F011210C1
:10099000AF7F851210AF7BFF7A0A7967120FA27FB3
:1009A000991210AF7BFF7A0A7971120FA2E4F53F1A
:0109B0002224
:100E8B007D027FD0120FE38F0E7D017FD0120FE317
:100E9B008F0FE4FD7FD0120FE3AE07AF0E12109948
:100EAB008F2BAF0E1210A88F2CAF0F1210998F2E05
:100EBB00AF0F1210A88F2FAF061210998F31AF06FC
:0B0ECB001210A88F327B007A00792BF8
:010ED60022F9
:100E37007D047FD0120FE38F0E7D057FD0120FE365
:100E47008F0F7D067FD0120FE3AD077C00AF0E1228
:100E570010998F34AF0E1210A88F35AF0F1210995B
:100E67008F37AF0F1210A88F38753A32753B30AFF6
:100E7700051210998F3CAF051210A88F3D7B007AA1
:030E8700007934BB
:010E8A002245
:100D3E00020BF5E493A3F8E493A34003F68001F2CB
:100D4E0008DFF48029E493A3F85407240CC8C333B6
:100D5E00C4540F4420C8834004F456800146F6DF85
:100D6E00E4800B0102040810204080901031E47ED4
:100D7E00019360BCA3FF543F30E509541FFEE4937A
:100D8E00A360010ECF54C025E060A840B8E493A341
:100D9E00FAE493A3F8E493A3C8C582C8CAC583CA6C
:100DAE00F0A3C8C582C8CAC583CADFE9DEE780BE24
:0110490000A6
:100B3F00BB010689828A83E0225002E722BBFE02B4
:090B4F00E32289828A83E49322E7
:100B5800EF8DF0A4A8F0CF8CF0A428CE8DF0A42EB1
:020B6800FE226B
:100B6A00C2D5EC30E709B2D5E4C39DFDE49CFCEEA6
:100B7A0030E715B2D5E4C39FFFE49EFE120BA0C373
:100B8A00E49DFDE49CFC8003120BA030D507C3E46E
:060B9A009FFFE49EFE2215
:100BA000BC000BBE0029EF8DF084FFADF022E4CC39
:100BB000F875F008EF2FFFEE33FEEC33FCEE9DEC02
:100BC000984005FCEE9DFE0FD5F0E9E4CEFD22ED48
:100BD000F8F5F0EE8420D21CFEADF075F008EF2F92
:100BE000FFED33FD4007985006D5F0F222C398FD83
:050BF0000FD5F0EA2220
:00000001FF
